{
  "contracts/l1/L1GovernanceRelay.sol": {
    "L1GovernanceRelay": {
      "abi": [
        {
          "inputs": [
            {
              "internalType": "address",
              "name": "_starkNet",
              "type": "address"
            },
            {
              "internalType": "uint256",
              "name": "_l2GovernanceRelay",
              "type": "uint256"
            }
          ],
          "stateMutability": "nonpayable",
          "type": "constructor"
        },
        {
          "anonymous": false,
          "inputs": [
            {
              "indexed": true,
              "internalType": "address",
              "name": "usr",
              "type": "address"
            }
          ],
          "name": "Deny",
          "type": "event"
        },
        {
          "anonymous": false,
          "inputs": [
            {
              "indexed": true,
              "internalType": "address",
              "name": "usr",
              "type": "address"
            }
          ],
          "name": "Rely",
          "type": "event"
        },
        {
          "inputs": [
            {
              "internalType": "address",
              "name": "usr",
              "type": "address"
            }
          ],
          "name": "deny",
          "outputs": [],
          "stateMutability": "nonpayable",
          "type": "function"
        },
        {
          "inputs": [],
          "name": "l2GovernanceRelay",
          "outputs": [
            {
              "internalType": "uint256",
              "name": "",
              "type": "uint256"
            }
          ],
          "stateMutability": "view",
          "type": "function"
        },
        {
          "inputs": [
            {
              "internalType": "uint256",
              "name": "spell",
              "type": "uint256"
            }
          ],
          "name": "relay",
          "outputs": [],
          "stateMutability": "nonpayable",
          "type": "function"
        },
        {
          "inputs": [
            {
              "internalType": "address",
              "name": "usr",
              "type": "address"
            }
          ],
          "name": "rely",
          "outputs": [],
          "stateMutability": "nonpayable",
          "type": "function"
        },
        {
          "inputs": [],
          "name": "starkNet",
          "outputs": [
            {
              "internalType": "address",
              "name": "",
              "type": "address"
            }
          ],
          "stateMutability": "view",
          "type": "function"
        },
        {
          "inputs": [
            {
              "internalType": "address",
              "name": "",
              "type": "address"
            }
          ],
          "name": "wards",
          "outputs": [
            {
              "internalType": "uint256",
              "name": "",
              "type": "uint256"
            }
          ],
          "stateMutability": "view",
          "type": "function"
        }
      ],
      "evm": {
        "bytecode": {
          "linkReferences": {},
          "object": "60c060405234801561001057600080fd5b506040516105843803806105848339818101604052604081101561003357600080fd5b50805160209182015133600081815293849052604080852060019055519293919290917fdd0e34038ac38b2a1ce960229778ac48a8719bc900b6c4f8d0475c6e8b385a6091a2606082901b6001600160601b03191660805260a08190526001600160a01b03909116906104c16100c36000398061021552806103b0525080610148528061038152506104c16000f3fe608060405234801561001057600080fd5b50600436106100725760003560e01c80639c52a7f1116100505780639c52a7f1146100dd578063be0d56d214610103578063bf353dbb1461012057610072565b80630b43773e1461007757806365fae35e1461009b578063862a98a1146100c3575b600080fd5b61007f610146565b604080516001600160a01b039092168252519081900360200190f35b6100c1600480360360208110156100b157600080fd5b50356001600160a01b031661016a565b005b6100cb610213565b60408051918252519081900360200190f35b6100c1600480360360208110156100f357600080fd5b50356001600160a01b0316610237565b6100c16004803603602081101561011957600080fd5b50356102df565b6100cb6004803603602081101561013657600080fd5b50356001600160a01b03166104a2565b7f000000000000000000000000000000000000000000000000000000000000000081565b336000908152602081905260409020546001146101ce576040805162461bcd60e51b815260206004820181905260248201527f4c31476f7665726e616e636552656c61792f6e6f742d617574686f72697a6564604482015290519081900360640190fd5b6001600160a01b03811660008181526020819052604080822060019055517fdd0e34038ac38b2a1ce960229778ac48a8719bc900b6c4f8d0475c6e8b385a609190a250565b7f000000000000000000000000000000000000000000000000000000000000000081565b3360009081526020819052604090205460011461029b576040805162461bcd60e51b815260206004820181905260248201527f4c31476f7665726e616e636552656c61792f6e6f742d617574686f72697a6564604482015290519081900360640190fd5b6001600160a01b038116600081815260208190526040808220829055517f184450df2e323acec0ed3b5c7531b81f9b4cdef7914dfd4c0a4317416bb5251b9190a250565b33600090815260208190526040902054600114610343576040805162461bcd60e51b815260206004820181905260248201527f4c31476f7665726e616e636552656c61792f6e6f742d617574686f72697a6564604482015290519081900360640190fd5b60408051600180825281830190925260009160208083019080368337019050509050818160008151811061037357fe5b6020026020010181815250507f00000000000000000000000000000000000000000000000000000000000000006001600160a01b0316633e3aa6c57f00000000000000000000000000000000000000000000000000000000000000007ea9ebda8d3a6595cf15b1d46ea0e440a9810c2b99a3e889c6b3b46f7ff0e5e1846040518463ffffffff1660e01b81526004018084815260200183815260200180602001828103825283818151815260200191508051906020019060200280838360005b8381101561044b578181015183820152602001610433565b50505050905001945050505050602060405180830381600087803b15801561047257600080fd5b505af1158015610486573d6000803e3d6000fd5b505050506040513d602081101561049c57600080fd5b50505050565b6000602081905290815260409020548156fea164736f6c6343000706000a",
          "opcodes": "PUSH1 0xC0 PUSH1 0x40 MSTORE CALLVALUE DUP1 ISZERO PUSH2 0x10 JUMPI PUSH1 0x0 DUP1 REVERT JUMPDEST POP PUSH1 0x40 MLOAD PUSH2 0x584 CODESIZE SUB DUP1 PUSH2 0x584 DUP4 CODECOPY DUP2 DUP2 ADD PUSH1 0x40 MSTORE PUSH1 0x40 DUP2 LT ISZERO PUSH2 0x33 JUMPI PUSH1 0x0 DUP1 REVERT JUMPDEST POP DUP1 MLOAD PUSH1 0x20 SWAP2 DUP3 ADD MLOAD CALLER PUSH1 0x0 DUP2 DUP2 MSTORE SWAP4 DUP5 SWAP1 MSTORE PUSH1 0x40 DUP1 DUP6 KECCAK256 PUSH1 0x1 SWAP1 SSTORE MLOAD SWAP3 SWAP4 SWAP2 SWAP3 SWAP1 SWAP2 PUSH32 0xDD0E34038AC38B2A1CE960229778AC48A8719BC900B6C4F8D0475C6E8B385A60 SWAP2 LOG2 PUSH1 0x60 DUP3 SWAP1 SHL PUSH1 0x1 PUSH1 0x1 PUSH1 0x60 SHL SUB NOT AND PUSH1 0x80 MSTORE PUSH1 0xA0 DUP2 SWAP1 MSTORE PUSH1 0x1 PUSH1 0x1 PUSH1 0xA0 SHL SUB SWAP1 SWAP2 AND SWAP1 PUSH2 0x4C1 PUSH2 0xC3 PUSH1 0x0 CODECOPY DUP1 PUSH2 0x215 MSTORE DUP1 PUSH2 0x3B0 MSTORE POP DUP1 PUSH2 0x148 MSTORE DUP1 PUSH2 0x381 MSTORE POP PUSH2 0x4C1 PUSH1 0x0 RETURN INVALID PUSH1 0x80 PUSH1 0x40 MSTORE CALLVALUE DUP1 ISZERO PUSH2 0x10 JUMPI PUSH1 0x0 DUP1 REVERT JUMPDEST POP PUSH1 0x4 CALLDATASIZE LT PUSH2 0x72 JUMPI PUSH1 0x0 CALLDATALOAD PUSH1 0xE0 SHR DUP1 PUSH4 0x9C52A7F1 GT PUSH2 0x50 JUMPI DUP1 PUSH4 0x9C52A7F1 EQ PUSH2 0xDD JUMPI DUP1 PUSH4 0xBE0D56D2 EQ PUSH2 0x103 JUMPI DUP1 PUSH4 0xBF353DBB EQ PUSH2 0x120 JUMPI PUSH2 0x72 JUMP JUMPDEST DUP1 PUSH4 0xB43773E EQ PUSH2 0x77 JUMPI DUP1 PUSH4 0x65FAE35E EQ PUSH2 0x9B JUMPI DUP1 PUSH4 0x862A98A1 EQ PUSH2 0xC3 JUMPI JUMPDEST PUSH1 0x0 DUP1 REVERT JUMPDEST PUSH2 0x7F PUSH2 0x146 JUMP JUMPDEST PUSH1 0x40 DUP1 MLOAD PUSH1 0x1 PUSH1 0x1 PUSH1 0xA0 SHL SUB SWAP1 SWAP3 AND DUP3 MSTORE MLOAD SWAP1 DUP2 SWAP1 SUB PUSH1 0x20 ADD SWAP1 RETURN JUMPDEST PUSH2 0xC1 PUSH1 0x4 DUP1 CALLDATASIZE SUB PUSH1 0x20 DUP2 LT ISZERO PUSH2 0xB1 JUMPI PUSH1 0x0 DUP1 REVERT JUMPDEST POP CALLDATALOAD PUSH1 0x1 PUSH1 0x1 PUSH1 0xA0 SHL SUB AND PUSH2 0x16A JUMP JUMPDEST STOP JUMPDEST PUSH2 0xCB PUSH2 0x213 JUMP JUMPDEST PUSH1 0x40 DUP1 MLOAD SWAP2 DUP3 MSTORE MLOAD SWAP1 DUP2 SWAP1 SUB PUSH1 0x20 ADD SWAP1 RETURN JUMPDEST PUSH2 0xC1 PUSH1 0x4 DUP1 CALLDATASIZE SUB PUSH1 0x20 DUP2 LT ISZERO PUSH2 0xF3 JUMPI PUSH1 0x0 DUP1 REVERT JUMPDEST POP CALLDATALOAD PUSH1 0x1 PUSH1 0x1 PUSH1 0xA0 SHL SUB AND PUSH2 0x237 JUMP JUMPDEST PUSH2 0xC1 PUSH1 0x4 DUP1 CALLDATASIZE SUB PUSH1 0x20 DUP2 LT ISZERO PUSH2 0x119 JUMPI PUSH1 0x0 DUP1 REVERT JUMPDEST POP CALLDATALOAD PUSH2 0x2DF JUMP JUMPDEST PUSH2 0xCB PUSH1 0x4 DUP1 CALLDATASIZE SUB PUSH1 0x20 DUP2 LT ISZERO PUSH2 0x136 JUMPI PUSH1 0x0 DUP1 REVERT JUMPDEST POP CALLDATALOAD PUSH1 0x1 PUSH1 0x1 PUSH1 0xA0 SHL SUB AND PUSH2 0x4A2 JUMP JUMPDEST PUSH32 0x0 DUP2 JUMP JUMPDEST CALLER PUSH1 0x0 SWAP1 DUP2 MSTORE PUSH1 0x20 DUP2 SWAP1 MSTORE PUSH1 0x40 SWAP1 KECCAK256 SLOAD PUSH1 0x1 EQ PUSH2 0x1CE JUMPI PUSH1 0x40 DUP1 MLOAD PUSH3 0x461BCD PUSH1 0xE5 SHL DUP2 MSTORE PUSH1 0x20 PUSH1 0x4 DUP3 ADD DUP2 SWAP1 MSTORE PUSH1 0x24 DUP3 ADD MSTORE PUSH32 0x4C31476F7665726E616E636552656C61792F6E6F742D617574686F72697A6564 PUSH1 0x44 DUP3 ADD MSTORE SWAP1 MLOAD SWAP1 DUP2 SWAP1 SUB PUSH1 0x64 ADD SWAP1 REVERT JUMPDEST PUSH1 0x1 PUSH1 0x1 PUSH1 0xA0 SHL SUB DUP2 AND PUSH1 0x0 DUP2 DUP2 MSTORE PUSH1 0x20 DUP2 SWAP1 MSTORE PUSH1 0x40 DUP1 DUP3 KECCAK256 PUSH1 0x1 SWAP1 SSTORE MLOAD PUSH32 0xDD0E34038AC38B2A1CE960229778AC48A8719BC900B6C4F8D0475C6E8B385A60 SWAP2 SWAP1 LOG2 POP JUMP JUMPDEST PUSH32 0x0 DUP2 JUMP JUMPDEST CALLER PUSH1 0x0 SWAP1 DUP2 MSTORE PUSH1 0x20 DUP2 SWAP1 MSTORE PUSH1 0x40 SWAP1 KECCAK256 SLOAD PUSH1 0x1 EQ PUSH2 0x29B JUMPI PUSH1 0x40 DUP1 MLOAD PUSH3 0x461BCD PUSH1 0xE5 SHL DUP2 MSTORE PUSH1 0x20 PUSH1 0x4 DUP3 ADD DUP2 SWAP1 MSTORE PUSH1 0x24 DUP3 ADD MSTORE PUSH32 0x4C31476F7665726E616E636552656C61792F6E6F742D617574686F72697A6564 PUSH1 0x44 DUP3 ADD MSTORE SWAP1 MLOAD SWAP1 DUP2 SWAP1 SUB PUSH1 0x64 ADD SWAP1 REVERT JUMPDEST PUSH1 0x1 PUSH1 0x1 PUSH1 0xA0 SHL SUB DUP2 AND PUSH1 0x0 DUP2 DUP2 MSTORE PUSH1 0x20 DUP2 SWAP1 MSTORE PUSH1 0x40 DUP1 DUP3 KECCAK256 DUP3 SWAP1 SSTORE MLOAD PUSH32 0x184450DF2E323ACEC0ED3B5C7531B81F9B4CDEF7914DFD4C0A4317416BB5251B SWAP2 SWAP1 LOG2 POP JUMP JUMPDEST CALLER PUSH1 0x0 SWAP1 DUP2 MSTORE PUSH1 0x20 DUP2 SWAP1 MSTORE PUSH1 0x40 SWAP1 KECCAK256 SLOAD PUSH1 0x1 EQ PUSH2 0x343 JUMPI PUSH1 0x40 DUP1 MLOAD PUSH3 0x461BCD PUSH1 0xE5 SHL DUP2 MSTORE PUSH1 0x20 PUSH1 0x4 DUP3 ADD DUP2 SWAP1 MSTORE PUSH1 0x24 DUP3 ADD MSTORE PUSH32 0x4C31476F7665726E616E636552656C61792F6E6F742D617574686F72697A6564 PUSH1 0x44 DUP3 ADD MSTORE SWAP1 MLOAD SWAP1 DUP2 SWAP1 SUB PUSH1 0x64 ADD SWAP1 REVERT JUMPDEST PUSH1 0x40 DUP1 MLOAD PUSH1 0x1 DUP1 DUP3 MSTORE DUP2 DUP4 ADD SWAP1 SWAP3 MSTORE PUSH1 0x0 SWAP2 PUSH1 0x20 DUP1 DUP4 ADD SWAP1 DUP1 CALLDATASIZE DUP4 CALLDATACOPY ADD SWAP1 POP POP SWAP1 POP DUP2 DUP2 PUSH1 0x0 DUP2 MLOAD DUP2 LT PUSH2 0x373 JUMPI INVALID JUMPDEST PUSH1 0x20 MUL PUSH1 0x20 ADD ADD DUP2 DUP2 MSTORE POP POP PUSH32 0x0 PUSH1 0x1 PUSH1 0x1 PUSH1 0xA0 SHL SUB AND PUSH4 0x3E3AA6C5 PUSH32 0x0 PUSH31 0xA9EBDA8D3A6595CF15B1D46EA0E440A9810C2B99A3E889C6B3B46F7FF0E5E1 DUP5 PUSH1 0x40 MLOAD DUP5 PUSH4 0xFFFFFFFF AND PUSH1 0xE0 SHL DUP2 MSTORE PUSH1 0x4 ADD DUP1 DUP5 DUP2 MSTORE PUSH1 0x20 ADD DUP4 DUP2 MSTORE PUSH1 0x20 ADD DUP1 PUSH1 0x20 ADD DUP3 DUP2 SUB DUP3 MSTORE DUP4 DUP2 DUP2 MLOAD DUP2 MSTORE PUSH1 0x20 ADD SWAP2 POP DUP1 MLOAD SWAP1 PUSH1 0x20 ADD SWAP1 PUSH1 0x20 MUL DUP1 DUP4 DUP4 PUSH1 0x0 JUMPDEST DUP4 DUP2 LT ISZERO PUSH2 0x44B JUMPI DUP2 DUP2 ADD MLOAD DUP4 DUP3 ADD MSTORE PUSH1 0x20 ADD PUSH2 0x433 JUMP JUMPDEST POP POP POP POP SWAP1 POP ADD SWAP5 POP POP POP POP POP PUSH1 0x20 PUSH1 0x40 MLOAD DUP1 DUP4 SUB DUP2 PUSH1 0x0 DUP8 DUP1 EXTCODESIZE ISZERO DUP1 ISZERO PUSH2 0x472 JUMPI PUSH1 0x0 DUP1 REVERT JUMPDEST POP GAS CALL ISZERO DUP1 ISZERO PUSH2 0x486 JUMPI RETURNDATASIZE PUSH1 0x0 DUP1 RETURNDATACOPY RETURNDATASIZE PUSH1 0x0 REVERT JUMPDEST POP POP POP POP PUSH1 0x40 MLOAD RETURNDATASIZE PUSH1 0x20 DUP2 LT ISZERO PUSH2 0x49C JUMPI PUSH1 0x0 DUP1 REVERT JUMPDEST POP POP POP POP JUMP JUMPDEST PUSH1 0x0 PUSH1 0x20 DUP2 SWAP1 MSTORE SWAP1 DUP2 MSTORE PUSH1 0x40 SWAP1 KECCAK256 SLOAD DUP2 JUMP INVALID LOG1 PUSH5 0x736F6C6343 STOP SMOD MOD STOP EXP "
        },
        "methodIdentifiers": {
          "deny(address)": "9c52a7f1",
          "l2GovernanceRelay()": "862a98a1",
          "relay(uint256)": "be0d56d2",
          "rely(address)": "65fae35e",
          "starkNet()": "0b43773e",
          "wards(address)": "bf353dbb"
        }
      }
    }
  }
}