{
  "contracts/l1/mocks.sol": {
    "WormholeRouterMock": {
      "abi": [
        {
          "anonymous": false,
          "inputs": [
            {
              "components": [
                {
                  "internalType": "bytes32",
                  "name": "sourceDomain",
                  "type": "bytes32"
                },
                {
                  "internalType": "bytes32",
                  "name": "targetDomain",
                  "type": "bytes32"
                },
                {
                  "internalType": "bytes32",
                  "name": "receiver",
                  "type": "bytes32"
                },
                {
                  "internalType": "bytes32",
                  "name": "operator",
                  "type": "bytes32"
                },
                {
                  "internalType": "uint128",
                  "name": "amount",
                  "type": "uint128"
                },
                {
                  "internalType": "uint80",
                  "name": "nonce",
                  "type": "uint80"
                },
                {
                  "internalType": "uint48",
                  "name": "timestamp",
                  "type": "uint48"
                }
              ],
              "indexed": false,
              "internalType": "struct WormholeGUID",
              "name": "wormholeGUID",
              "type": "tuple"
            },
            {
              "indexed": false,
              "internalType": "uint256",
              "name": "maxFeePercentage",
              "type": "uint256"
            },
            {
              "indexed": false,
              "internalType": "uint256",
              "name": "operatorFee",
              "type": "uint256"
            }
          ],
          "name": "RequestMint",
          "type": "event"
        },
        {
          "anonymous": false,
          "inputs": [
            {
              "indexed": false,
              "internalType": "bytes32",
              "name": "targetDomain",
              "type": "bytes32"
            },
            {
              "indexed": false,
              "internalType": "uint256",
              "name": "batchedDaiToFlush",
              "type": "uint256"
            }
          ],
          "name": "Settle",
          "type": "event"
        },
        {
          "inputs": [
            {
              "components": [
                {
                  "internalType": "bytes32",
                  "name": "sourceDomain",
                  "type": "bytes32"
                },
                {
                  "internalType": "bytes32",
                  "name": "targetDomain",
                  "type": "bytes32"
                },
                {
                  "internalType": "bytes32",
                  "name": "receiver",
                  "type": "bytes32"
                },
                {
                  "internalType": "bytes32",
                  "name": "operator",
                  "type": "bytes32"
                },
                {
                  "internalType": "uint128",
                  "name": "amount",
                  "type": "uint128"
                },
                {
                  "internalType": "uint80",
                  "name": "nonce",
                  "type": "uint80"
                },
                {
                  "internalType": "uint48",
                  "name": "timestamp",
                  "type": "uint48"
                }
              ],
              "internalType": "struct WormholeGUID",
              "name": "wormholeGUID",
              "type": "tuple"
            },
            {
              "internalType": "uint256",
              "name": "maxFeePercentage",
              "type": "uint256"
            },
            {
              "internalType": "uint256",
              "name": "operatorFee",
              "type": "uint256"
            }
          ],
          "name": "requestMint",
          "outputs": [
            {
              "internalType": "uint256",
              "name": "postFeeAmount",
              "type": "uint256"
            },
            {
              "internalType": "uint256",
              "name": "totalFee",
              "type": "uint256"
            }
          ],
          "stateMutability": "nonpayable",
          "type": "function"
        },
        {
          "inputs": [
            {
              "internalType": "bytes32",
              "name": "targetDomain",
              "type": "bytes32"
            },
            {
              "internalType": "uint256",
              "name": "batchedDaiToFlush",
              "type": "uint256"
            }
          ],
          "name": "settle",
          "outputs": [],
          "stateMutability": "nonpayable",
          "type": "function"
        }
      ],
      "evm": {
        "bytecode": {
          "linkReferences": {},
          "object": "608060405234801561001057600080fd5b5061027e806100206000396000f3fe608060405234801561001057600080fd5b50600436106100365760003560e01c806315534afc1461003b57806379f48d4c14610065575b600080fd5b61004e610049366004610155565b61007a565b60405161005c9291906101c1565b60405180910390f35b610078610073366004610134565b6100c2565b005b6000807fdad41b507402a003bb73111decaef8f5fa26287b05009dda7e0b99d0e3a856fb8585856040516100b0939291906101cf565b60405180910390a15091939092509050565b7f792e2de836c3992709fda125a747da218b37de844082962d5612bdf04b418c3a82826040516100f39291906101c1565b60405180910390a15050565b803565ffffffffffff8116811461011557600080fd5b919050565b803569ffffffffffffffffffff8116811461011557600080fd5b60008060408385031215610146578182fd5b50508035926020909101359150565b600080600083850361012081121561016b578182fd5b60e0811215610178578182fd5b50929460e086013594506101008601359350915050565b6fffffffffffffffffffffffffffffffff169052565b65ffffffffffff169052565b69ffffffffffffffffffff169052565b918252602082015260400190565b6000610120820190508435825260208501356020830152604085013560408301526060850135606083015260808501356fffffffffffffffffffffffffffffffff8116811461021d57600080fd5b61022a608084018261018f565b5061023760a0860161011a565b61024460a08401826101b1565b5061025160c086016100ff565b61025e60c08401826101a5565b5060e0820193909352610100015291905056fea164736f6c6343000706000a",
          "opcodes": "PUSH1 0x80 PUSH1 0x40 MSTORE CALLVALUE DUP1 ISZERO PUSH2 0x10 JUMPI PUSH1 0x0 DUP1 REVERT JUMPDEST POP PUSH2 0x27E DUP1 PUSH2 0x20 PUSH1 0x0 CODECOPY PUSH1 0x0 RETURN INVALID PUSH1 0x80 PUSH1 0x40 MSTORE CALLVALUE DUP1 ISZERO PUSH2 0x10 JUMPI PUSH1 0x0 DUP1 REVERT JUMPDEST POP PUSH1 0x4 CALLDATASIZE LT PUSH2 0x36 JUMPI PUSH1 0x0 CALLDATALOAD PUSH1 0xE0 SHR DUP1 PUSH4 0x15534AFC EQ PUSH2 0x3B JUMPI DUP1 PUSH4 0x79F48D4C EQ PUSH2 0x65 JUMPI JUMPDEST PUSH1 0x0 DUP1 REVERT JUMPDEST PUSH2 0x4E PUSH2 0x49 CALLDATASIZE PUSH1 0x4 PUSH2 0x155 JUMP JUMPDEST PUSH2 0x7A JUMP JUMPDEST PUSH1 0x40 MLOAD PUSH2 0x5C SWAP3 SWAP2 SWAP1 PUSH2 0x1C1 JUMP JUMPDEST PUSH1 0x40 MLOAD DUP1 SWAP2 SUB SWAP1 RETURN JUMPDEST PUSH2 0x78 PUSH2 0x73 CALLDATASIZE PUSH1 0x4 PUSH2 0x134 JUMP JUMPDEST PUSH2 0xC2 JUMP JUMPDEST STOP JUMPDEST PUSH1 0x0 DUP1 PUSH32 0xDAD41B507402A003BB73111DECAEF8F5FA26287B05009DDA7E0B99D0E3A856FB DUP6 DUP6 DUP6 PUSH1 0x40 MLOAD PUSH2 0xB0 SWAP4 SWAP3 SWAP2 SWAP1 PUSH2 0x1CF JUMP JUMPDEST PUSH1 0x40 MLOAD DUP1 SWAP2 SUB SWAP1 LOG1 POP SWAP2 SWAP4 SWAP1 SWAP3 POP SWAP1 POP JUMP JUMPDEST PUSH32 0x792E2DE836C3992709FDA125A747DA218B37DE844082962D5612BDF04B418C3A DUP3 DUP3 PUSH1 0x40 MLOAD PUSH2 0xF3 SWAP3 SWAP2 SWAP1 PUSH2 0x1C1 JUMP JUMPDEST PUSH1 0x40 MLOAD DUP1 SWAP2 SUB SWAP1 LOG1 POP POP JUMP JUMPDEST DUP1 CALLDATALOAD PUSH6 0xFFFFFFFFFFFF DUP2 AND DUP2 EQ PUSH2 0x115 JUMPI PUSH1 0x0 DUP1 REVERT JUMPDEST SWAP2 SWAP1 POP JUMP JUMPDEST DUP1 CALLDATALOAD PUSH10 0xFFFFFFFFFFFFFFFFFFFF DUP2 AND DUP2 EQ PUSH2 0x115 JUMPI PUSH1 0x0 DUP1 REVERT JUMPDEST PUSH1 0x0 DUP1 PUSH1 0x40 DUP4 DUP6 SUB SLT ISZERO PUSH2 0x146 JUMPI DUP2 DUP3 REVERT JUMPDEST POP POP DUP1 CALLDATALOAD SWAP3 PUSH1 0x20 SWAP1 SWAP2 ADD CALLDATALOAD SWAP2 POP JUMP JUMPDEST PUSH1 0x0 DUP1 PUSH1 0x0 DUP4 DUP6 SUB PUSH2 0x120 DUP2 SLT ISZERO PUSH2 0x16B JUMPI DUP2 DUP3 REVERT JUMPDEST PUSH1 0xE0 DUP2 SLT ISZERO PUSH2 0x178 JUMPI DUP2 DUP3 REVERT JUMPDEST POP SWAP3 SWAP5 PUSH1 0xE0 DUP7 ADD CALLDATALOAD SWAP5 POP PUSH2 0x100 DUP7 ADD CALLDATALOAD SWAP4 POP SWAP2 POP POP JUMP JUMPDEST PUSH16 0xFFFFFFFFFFFFFFFFFFFFFFFFFFFFFFFF AND SWAP1 MSTORE JUMP JUMPDEST PUSH6 0xFFFFFFFFFFFF AND SWAP1 MSTORE JUMP JUMPDEST PUSH10 0xFFFFFFFFFFFFFFFFFFFF AND SWAP1 MSTORE JUMP JUMPDEST SWAP2 DUP3 MSTORE PUSH1 0x20 DUP3 ADD MSTORE PUSH1 0x40 ADD SWAP1 JUMP JUMPDEST PUSH1 0x0 PUSH2 0x120 DUP3 ADD SWAP1 POP DUP5 CALLDATALOAD DUP3 MSTORE PUSH1 0x20 DUP6 ADD CALLDATALOAD PUSH1 0x20 DUP4 ADD MSTORE PUSH1 0x40 DUP6 ADD CALLDATALOAD PUSH1 0x40 DUP4 ADD MSTORE PUSH1 0x60 DUP6 ADD CALLDATALOAD PUSH1 0x60 DUP4 ADD MSTORE PUSH1 0x80 DUP6 ADD CALLDATALOAD PUSH16 0xFFFFFFFFFFFFFFFFFFFFFFFFFFFFFFFF DUP2 AND DUP2 EQ PUSH2 0x21D JUMPI PUSH1 0x0 DUP1 REVERT JUMPDEST PUSH2 0x22A PUSH1 0x80 DUP5 ADD DUP3 PUSH2 0x18F JUMP JUMPDEST POP PUSH2 0x237 PUSH1 0xA0 DUP7 ADD PUSH2 0x11A JUMP JUMPDEST PUSH2 0x244 PUSH1 0xA0 DUP5 ADD DUP3 PUSH2 0x1B1 JUMP JUMPDEST POP PUSH2 0x251 PUSH1 0xC0 DUP7 ADD PUSH2 0xFF JUMP JUMPDEST PUSH2 0x25E PUSH1 0xC0 DUP5 ADD DUP3 PUSH2 0x1A5 JUMP JUMPDEST POP PUSH1 0xE0 DUP3 ADD SWAP4 SWAP1 SWAP4 MSTORE PUSH2 0x100 ADD MSTORE SWAP2 SWAP1 POP JUMP INVALID LOG1 PUSH5 0x736F6C6343 STOP SMOD MOD STOP EXP "
        },
        "methodIdentifiers": {
          "requestMint((bytes32,bytes32,bytes32,bytes32,uint128,uint80,uint48),uint256,uint256)": "15534afc",
          "settle(bytes32,uint256)": "79f48d4c"
        }
      }
    }
  }
}