{
  "contracts/l1/L1DAIWormholeGateway.sol": {
    "L1DAIWormholeGateway": {
      "abi": [
        {
          "inputs": [
            {
              "internalType": "address",
              "name": "_starkNet",
              "type": "address"
            },
            {
              "internalType": "address",
              "name": "_dai",
              "type": "address"
            },
            {
              "internalType": "uint256",
              "name": "_l2DaiWormholeGateway",
              "type": "uint256"
            },
            {
              "internalType": "address",
              "name": "_escrow",
              "type": "address"
            },
            {
              "internalType": "address",
              "name": "_wormholeRouter",
              "type": "address"
            }
          ],
          "stateMutability": "nonpayable",
          "type": "constructor"
        },
        {
          "inputs": [],
          "name": "dai",
          "outputs": [
            {
              "internalType": "address",
              "name": "",
              "type": "address"
            }
          ],
          "stateMutability": "view",
          "type": "function"
        },
        {
          "inputs": [],
          "name": "escrow",
          "outputs": [
            {
              "internalType": "address",
              "name": "",
              "type": "address"
            }
          ],
          "stateMutability": "view",
          "type": "function"
        },
        {
          "inputs": [
            {
              "internalType": "bytes32",
              "name": "targetDomain",
              "type": "bytes32"
            },
            {
              "internalType": "uint256",
              "name": "daiToFlush",
              "type": "uint256"
            }
          ],
          "name": "finalizeFlush",
          "outputs": [],
          "stateMutability": "nonpayable",
          "type": "function"
        },
        {
          "inputs": [
            {
              "components": [
                {
                  "internalType": "bytes32",
                  "name": "sourceDomain",
                  "type": "bytes32"
                },
                {
                  "internalType": "bytes32",
                  "name": "targetDomain",
                  "type": "bytes32"
                },
                {
                  "internalType": "bytes32",
                  "name": "receiver",
                  "type": "bytes32"
                },
                {
                  "internalType": "bytes32",
                  "name": "operator",
                  "type": "bytes32"
                },
                {
                  "internalType": "uint128",
                  "name": "amount",
                  "type": "uint128"
                },
                {
                  "internalType": "uint80",
                  "name": "nonce",
                  "type": "uint80"
                },
                {
                  "internalType": "uint48",
                  "name": "timestamp",
                  "type": "uint48"
                }
              ],
              "internalType": "struct WormholeGUID",
              "name": "wormhole",
              "type": "tuple"
            }
          ],
          "name": "finalizeRegisterWormhole",
          "outputs": [],
          "stateMutability": "nonpayable",
          "type": "function"
        },
        {
          "inputs": [],
          "name": "l2DaiWormholeGateway",
          "outputs": [
            {
              "internalType": "uint256",
              "name": "",
              "type": "uint256"
            }
          ],
          "stateMutability": "view",
          "type": "function"
        },
        {
          "inputs": [],
          "name": "starkNet",
          "outputs": [
            {
              "internalType": "address",
              "name": "",
              "type": "address"
            }
          ],
          "stateMutability": "view",
          "type": "function"
        },
        {
          "inputs": [],
          "name": "wormholeRouter",
          "outputs": [
            {
              "internalType": "contract WormholeRouter",
              "name": "",
              "type": "address"
            }
          ],
          "stateMutability": "view",
          "type": "function"
        }
      ],
      "evm": {
        "bytecode": {
          "linkReferences": {},
          "object": "61012060405234801561001157600080fd5b50604051610b1d380380610b1d83398101604081905261003091610109565b6001600160601b0319606086811b821660805285811b821660a05260c085905283811b821660e05282901b166101005260405163095ea7b360e01b81526001600160a01b0385169063095ea7b3906100909084906000199060040161018d565b602060405180830381600087803b1580156100aa57600080fd5b505af11580156100be573d6000803e3d6000fd5b505050506040513d601f19601f820116820180604052508101906100e29190610166565b5050505050506101a6565b80516001600160a01b038116811461010457600080fd5b919050565b600080600080600060a08688031215610120578081fd5b610129866100ed565b9450610137602087016100ed565b93506040860151925061014c606087016100ed565b915061015a608087016100ed565b90509295509295909350565b600060208284031215610177578081fd5b81518015158114610186578182fd5b9392505050565b6001600160a01b03929092168252602082015260400190565b60805160601c60a05160601c60c05160e05160601c6101005160601c6109056102186000398061013f528061037252806105f152508061055b528061066152508061011b528061030152806104bb52508061052c528061068552508060f752806102d4528061048e52506109056000f3fe608060405234801561001057600080fd5b506004361061007d5760003560e01c8063b52547d21161005b578063b52547d2146100bd578063cf3f6209146100d2578063e2fdcc17146100e5578063f4b9fa75146100ed5761007d565b80630b43773e14610082578063652b3750146100a05780638c4554a8146100b5575b600080fd5b61008a6100f5565b60405161009791906107c6565b60405180910390f35b6100a8610119565b60405161009791906108a2565b61008a61013d565b6100d06100cb366004610761565b610161565b005b6100d06100e0366004610740565b6103e4565b61008a61065f565b61008a610683565b7f000000000000000000000000000000000000000000000000000000000000000081565b7f000000000000000000000000000000000000000000000000000000000000000081565b7f000000000000000000000000000000000000000000000000000000000000000081565b6040805160088082526101208201909252600091602082016101008036833701905050905060008160008151811061019557fe5b60209081029190910101528051823590829060019081106101b257fe5b602002602001018181525050816020013560001c816002815181106101d357fe5b602002602001018181525050816040013560001c816003815181106101f457fe5b602002602001018181525050816060013560001c8160048151811061021557fe5b602090810291909101015261023060a0830160808401610778565b6fffffffffffffffffffffffffffffffff168160058151811061024f57fe5b602090810291909101015261026a60c0830160a084016107ac565b69ffffffffffffffffffff168160068151811061028357fe5b602090810291909101015261029e60e0830160c08401610792565b65ffffffffffff16816007815181106102b357fe5b602090810291909101015260405162b2775760e61b81526001600160a01b037f00000000000000000000000000000000000000000000000000000000000000001690632c9dd5c09061032b907f00000000000000000000000000000000000000000000000000000000000000009085906004016108ab565b600060405180830381600087803b15801561034557600080fd5b505af1158015610359573d6000803e3d6000fd5b5050604051630554d2bf60e21b81526001600160a01b037f00000000000000000000000000000000000000000000000000000000000000001692506315534afc91506103ae908590600090819060040161080c565b600060405180830381600087803b1580156103c857600080fd5b505af11580156103dc573d6000803e3d6000fd5b505050505050565b60408051600480825260a082019092526000916020820160808036833701905050905060018160008151811061041657fe5b6020026020010181815250508260001c8160018151811061043357fe5b602002602001018181525050610448826106a7565b8260028151811061045557fe5b602002602001018360038151811061046957fe5b60209081029190910101919091525260405162b2775760e61b81526001600160a01b037f00000000000000000000000000000000000000000000000000000000000000001690632c9dd5c0906104e5907f00000000000000000000000000000000000000000000000000000000000000009085906004016108ab565b600060405180830381600087803b1580156104ff57600080fd5b505af1158015610513573d6000803e3d6000fd5b50506040516323b872dd60e01b81526001600160a01b037f00000000000000000000000000000000000000000000000000000000000000001692506323b872dd9150610587907f000000000000000000000000000000000000000000000000000000000000000090309087906004016107da565b602060405180830381600087803b1580156105a157600080fd5b505af11580156105b5573d6000803e3d6000fd5b505050506040513d601f19601f820116820180604052508101906105d99190610719565b50604051631e7d235360e21b81526001600160a01b037f000000000000000000000000000000000000000000000000000000000000000016906379f48d4c9061062890869086906004016107fe565b600060405180830381600087803b15801561064257600080fd5b505af1158015610656573d6000803e3d6000fd5b50505050505050565b7f000000000000000000000000000000000000000000000000000000000000000081565b7f000000000000000000000000000000000000000000000000000000000000000081565b6fffffffffffffffffffffffffffffffff8116608082901c915091565b80356fffffffffffffffffffffffffffffffff811681146106e457600080fd5b919050565b803565ffffffffffff811681146106e457600080fd5b803569ffffffffffffffffffff811681146106e457600080fd5b60006020828403121561072a578081fd5b81518015158114610739578182fd5b9392505050565b60008060408385031215610752578081fd5b50508035926020909101359150565b600060e08284031215610772578081fd5b50919050565b600060208284031215610789578081fd5b610739826106c4565b6000602082840312156107a3578081fd5b610739826106e9565b6000602082840312156107bd578081fd5b610739826106ff565b6001600160a01b0391909116815260200190565b6001600160a01b039384168152919092166020820152604081019190915260600190565b918252602082015260400190565b600061012082019050843582526020850135602083015260408501356040830152606085013560608301526fffffffffffffffffffffffffffffffff610854608087016106c4565b16608083015269ffffffffffffffffffff61087160a087016106ff565b1660a083015265ffffffffffff61088a60c087016106e9565b1660c083015260e08201939093526101000152919050565b90815260200190565b60006040820184835260206040818501528185518084526060860191508287019350845b818110156108eb578451835293830193918301916001016108cf565b509097965050505050505056fea164736f6c6343000706000a",
          "opcodes": "PUSH2 0x120 PUSH1 0x40 MSTORE CALLVALUE DUP1 ISZERO PUSH2 0x11 JUMPI PUSH1 0x0 DUP1 REVERT JUMPDEST POP PUSH1 0x40 MLOAD PUSH2 0xB1D CODESIZE SUB DUP1 PUSH2 0xB1D DUP4 CODECOPY DUP2 ADD PUSH1 0x40 DUP2 SWAP1 MSTORE PUSH2 0x30 SWAP2 PUSH2 0x109 JUMP JUMPDEST PUSH1 0x1 PUSH1 0x1 PUSH1 0x60 SHL SUB NOT PUSH1 0x60 DUP7 DUP2 SHL DUP3 AND PUSH1 0x80 MSTORE DUP6 DUP2 SHL DUP3 AND PUSH1 0xA0 MSTORE PUSH1 0xC0 DUP6 SWAP1 MSTORE DUP4 DUP2 SHL DUP3 AND PUSH1 0xE0 MSTORE DUP3 SWAP1 SHL AND PUSH2 0x100 MSTORE PUSH1 0x40 MLOAD PUSH4 0x95EA7B3 PUSH1 0xE0 SHL DUP2 MSTORE PUSH1 0x1 PUSH1 0x1 PUSH1 0xA0 SHL SUB DUP6 AND SWAP1 PUSH4 0x95EA7B3 SWAP1 PUSH2 0x90 SWAP1 DUP5 SWAP1 PUSH1 0x0 NOT SWAP1 PUSH1 0x4 ADD PUSH2 0x18D JUMP JUMPDEST PUSH1 0x20 PUSH1 0x40 MLOAD DUP1 DUP4 SUB DUP2 PUSH1 0x0 DUP8 DUP1 EXTCODESIZE ISZERO DUP1 ISZERO PUSH2 0xAA JUMPI PUSH1 0x0 DUP1 REVERT JUMPDEST POP GAS CALL ISZERO DUP1 ISZERO PUSH2 0xBE JUMPI RETURNDATASIZE PUSH1 0x0 DUP1 RETURNDATACOPY RETURNDATASIZE PUSH1 0x0 REVERT JUMPDEST POP POP POP POP PUSH1 0x40 MLOAD RETURNDATASIZE PUSH1 0x1F NOT PUSH1 0x1F DUP3 ADD AND DUP3 ADD DUP1 PUSH1 0x40 MSTORE POP DUP2 ADD SWAP1 PUSH2 0xE2 SWAP2 SWAP1 PUSH2 0x166 JUMP JUMPDEST POP POP POP POP POP POP PUSH2 0x1A6 JUMP JUMPDEST DUP1 MLOAD PUSH1 0x1 PUSH1 0x1 PUSH1 0xA0 SHL SUB DUP2 AND DUP2 EQ PUSH2 0x104 JUMPI PUSH1 0x0 DUP1 REVERT JUMPDEST SWAP2 SWAP1 POP JUMP JUMPDEST PUSH1 0x0 DUP1 PUSH1 0x0 DUP1 PUSH1 0x0 PUSH1 0xA0 DUP7 DUP9 SUB SLT ISZERO PUSH2 0x120 JUMPI DUP1 DUP2 REVERT JUMPDEST PUSH2 0x129 DUP7 PUSH2 0xED JUMP JUMPDEST SWAP5 POP PUSH2 0x137 PUSH1 0x20 DUP8 ADD PUSH2 0xED JUMP JUMPDEST SWAP4 POP PUSH1 0x40 DUP7 ADD MLOAD SWAP3 POP PUSH2 0x14C PUSH1 0x60 DUP8 ADD PUSH2 0xED JUMP JUMPDEST SWAP2 POP PUSH2 0x15A PUSH1 0x80 DUP8 ADD PUSH2 0xED JUMP JUMPDEST SWAP1 POP SWAP3 SWAP6 POP SWAP3 SWAP6 SWAP1 SWAP4 POP JUMP JUMPDEST PUSH1 0x0 PUSH1 0x20 DUP3 DUP5 SUB SLT ISZERO PUSH2 0x177 JUMPI DUP1 DUP2 REVERT JUMPDEST DUP2 MLOAD DUP1 ISZERO ISZERO DUP2 EQ PUSH2 0x186 JUMPI DUP2 DUP3 REVERT JUMPDEST SWAP4 SWAP3 POP POP POP JUMP JUMPDEST PUSH1 0x1 PUSH1 0x1 PUSH1 0xA0 SHL SUB SWAP3 SWAP1 SWAP3 AND DUP3 MSTORE PUSH1 0x20 DUP3 ADD MSTORE PUSH1 0x40 ADD SWAP1 JUMP JUMPDEST PUSH1 0x80 MLOAD PUSH1 0x60 SHR PUSH1 0xA0 MLOAD PUSH1 0x60 SHR PUSH1 0xC0 MLOAD PUSH1 0xE0 MLOAD PUSH1 0x60 SHR PUSH2 0x100 MLOAD PUSH1 0x60 SHR PUSH2 0x905 PUSH2 0x218 PUSH1 0x0 CODECOPY DUP1 PUSH2 0x13F MSTORE DUP1 PUSH2 0x372 MSTORE DUP1 PUSH2 0x5F1 MSTORE POP DUP1 PUSH2 0x55B MSTORE DUP1 PUSH2 0x661 MSTORE POP DUP1 PUSH2 0x11B MSTORE DUP1 PUSH2 0x301 MSTORE DUP1 PUSH2 0x4BB MSTORE POP DUP1 PUSH2 0x52C MSTORE DUP1 PUSH2 0x685 MSTORE POP DUP1 PUSH1 0xF7 MSTORE DUP1 PUSH2 0x2D4 MSTORE DUP1 PUSH2 0x48E MSTORE POP PUSH2 0x905 PUSH1 0x0 RETURN INVALID PUSH1 0x80 PUSH1 0x40 MSTORE CALLVALUE DUP1 ISZERO PUSH2 0x10 JUMPI PUSH1 0x0 DUP1 REVERT JUMPDEST POP PUSH1 0x4 CALLDATASIZE LT PUSH2 0x7D JUMPI PUSH1 0x0 CALLDATALOAD PUSH1 0xE0 SHR DUP1 PUSH4 0xB52547D2 GT PUSH2 0x5B JUMPI DUP1 PUSH4 0xB52547D2 EQ PUSH2 0xBD JUMPI DUP1 PUSH4 0xCF3F6209 EQ PUSH2 0xD2 JUMPI DUP1 PUSH4 0xE2FDCC17 EQ PUSH2 0xE5 JUMPI DUP1 PUSH4 0xF4B9FA75 EQ PUSH2 0xED JUMPI PUSH2 0x7D JUMP JUMPDEST DUP1 PUSH4 0xB43773E EQ PUSH2 0x82 JUMPI DUP1 PUSH4 0x652B3750 EQ PUSH2 0xA0 JUMPI DUP1 PUSH4 0x8C4554A8 EQ PUSH2 0xB5 JUMPI JUMPDEST PUSH1 0x0 DUP1 REVERT JUMPDEST PUSH2 0x8A PUSH2 0xF5 JUMP JUMPDEST PUSH1 0x40 MLOAD PUSH2 0x97 SWAP2 SWAP1 PUSH2 0x7C6 JUMP JUMPDEST PUSH1 0x40 MLOAD DUP1 SWAP2 SUB SWAP1 RETURN JUMPDEST PUSH2 0xA8 PUSH2 0x119 JUMP JUMPDEST PUSH1 0x40 MLOAD PUSH2 0x97 SWAP2 SWAP1 PUSH2 0x8A2 JUMP JUMPDEST PUSH2 0x8A PUSH2 0x13D JUMP JUMPDEST PUSH2 0xD0 PUSH2 0xCB CALLDATASIZE PUSH1 0x4 PUSH2 0x761 JUMP JUMPDEST PUSH2 0x161 JUMP JUMPDEST STOP JUMPDEST PUSH2 0xD0 PUSH2 0xE0 CALLDATASIZE PUSH1 0x4 PUSH2 0x740 JUMP JUMPDEST PUSH2 0x3E4 JUMP JUMPDEST PUSH2 0x8A PUSH2 0x65F JUMP JUMPDEST PUSH2 0x8A PUSH2 0x683 JUMP JUMPDEST PUSH32 0x0 DUP2 JUMP JUMPDEST PUSH32 0x0 DUP2 JUMP JUMPDEST PUSH32 0x0 DUP2 JUMP JUMPDEST PUSH1 0x40 DUP1 MLOAD PUSH1 0x8 DUP1 DUP3 MSTORE PUSH2 0x120 DUP3 ADD SWAP1 SWAP3 MSTORE PUSH1 0x0 SWAP2 PUSH1 0x20 DUP3 ADD PUSH2 0x100 DUP1 CALLDATASIZE DUP4 CALLDATACOPY ADD SWAP1 POP POP SWAP1 POP PUSH1 0x0 DUP2 PUSH1 0x0 DUP2 MLOAD DUP2 LT PUSH2 0x195 JUMPI INVALID JUMPDEST PUSH1 0x20 SWAP1 DUP2 MUL SWAP2 SWAP1 SWAP2 ADD ADD MSTORE DUP1 MLOAD DUP3 CALLDATALOAD SWAP1 DUP3 SWAP1 PUSH1 0x1 SWAP1 DUP2 LT PUSH2 0x1B2 JUMPI INVALID JUMPDEST PUSH1 0x20 MUL PUSH1 0x20 ADD ADD DUP2 DUP2 MSTORE POP POP DUP2 PUSH1 0x20 ADD CALLDATALOAD PUSH1 0x0 SHR DUP2 PUSH1 0x2 DUP2 MLOAD DUP2 LT PUSH2 0x1D3 JUMPI INVALID JUMPDEST PUSH1 0x20 MUL PUSH1 0x20 ADD ADD DUP2 DUP2 MSTORE POP POP DUP2 PUSH1 0x40 ADD CALLDATALOAD PUSH1 0x0 SHR DUP2 PUSH1 0x3 DUP2 MLOAD DUP2 LT PUSH2 0x1F4 JUMPI INVALID JUMPDEST PUSH1 0x20 MUL PUSH1 0x20 ADD ADD DUP2 DUP2 MSTORE POP POP DUP2 PUSH1 0x60 ADD CALLDATALOAD PUSH1 0x0 SHR DUP2 PUSH1 0x4 DUP2 MLOAD DUP2 LT PUSH2 0x215 JUMPI INVALID JUMPDEST PUSH1 0x20 SWAP1 DUP2 MUL SWAP2 SWAP1 SWAP2 ADD ADD MSTORE PUSH2 0x230 PUSH1 0xA0 DUP4 ADD PUSH1 0x80 DUP5 ADD PUSH2 0x778 JUMP JUMPDEST PUSH16 0xFFFFFFFFFFFFFFFFFFFFFFFFFFFFFFFF AND DUP2 PUSH1 0x5 DUP2 MLOAD DUP2 LT PUSH2 0x24F JUMPI INVALID JUMPDEST PUSH1 0x20 SWAP1 DUP2 MUL SWAP2 SWAP1 SWAP2 ADD ADD MSTORE PUSH2 0x26A PUSH1 0xC0 DUP4 ADD PUSH1 0xA0 DUP5 ADD PUSH2 0x7AC JUMP JUMPDEST PUSH10 0xFFFFFFFFFFFFFFFFFFFF AND DUP2 PUSH1 0x6 DUP2 MLOAD DUP2 LT PUSH2 0x283 JUMPI INVALID JUMPDEST PUSH1 0x20 SWAP1 DUP2 MUL SWAP2 SWAP1 SWAP2 ADD ADD MSTORE PUSH2 0x29E PUSH1 0xE0 DUP4 ADD PUSH1 0xC0 DUP5 ADD PUSH2 0x792 JUMP JUMPDEST PUSH6 0xFFFFFFFFFFFF AND DUP2 PUSH1 0x7 DUP2 MLOAD DUP2 LT PUSH2 0x2B3 JUMPI INVALID JUMPDEST PUSH1 0x20 SWAP1 DUP2 MUL SWAP2 SWAP1 SWAP2 ADD ADD MSTORE PUSH1 0x40 MLOAD PUSH3 0xB27757 PUSH1 0xE6 SHL DUP2 MSTORE PUSH1 0x1 PUSH1 0x1 PUSH1 0xA0 SHL SUB PUSH32 0x0 AND SWAP1 PUSH4 0x2C9DD5C0 SWAP1 PUSH2 0x32B SWAP1 PUSH32 0x0 SWAP1 DUP6 SWAP1 PUSH1 0x4 ADD PUSH2 0x8AB JUMP JUMPDEST PUSH1 0x0 PUSH1 0x40 MLOAD DUP1 DUP4 SUB DUP2 PUSH1 0x0 DUP8 DUP1 EXTCODESIZE ISZERO DUP1 ISZERO PUSH2 0x345 JUMPI PUSH1 0x0 DUP1 REVERT JUMPDEST POP GAS CALL ISZERO DUP1 ISZERO PUSH2 0x359 JUMPI RETURNDATASIZE PUSH1 0x0 DUP1 RETURNDATACOPY RETURNDATASIZE PUSH1 0x0 REVERT JUMPDEST POP POP PUSH1 0x40 MLOAD PUSH4 0x554D2BF PUSH1 0xE2 SHL DUP2 MSTORE PUSH1 0x1 PUSH1 0x1 PUSH1 0xA0 SHL SUB PUSH32 0x0 AND SWAP3 POP PUSH4 0x15534AFC SWAP2 POP PUSH2 0x3AE SWAP1 DUP6 SWAP1 PUSH1 0x0 SWAP1 DUP2 SWAP1 PUSH1 0x4 ADD PUSH2 0x80C JUMP JUMPDEST PUSH1 0x0 PUSH1 0x40 MLOAD DUP1 DUP4 SUB DUP2 PUSH1 0x0 DUP8 DUP1 EXTCODESIZE ISZERO DUP1 ISZERO PUSH2 0x3C8 JUMPI PUSH1 0x0 DUP1 REVERT JUMPDEST POP GAS CALL ISZERO DUP1 ISZERO PUSH2 0x3DC JUMPI RETURNDATASIZE PUSH1 0x0 DUP1 RETURNDATACOPY RETURNDATASIZE PUSH1 0x0 REVERT JUMPDEST POP POP POP POP POP POP JUMP JUMPDEST PUSH1 0x40 DUP1 MLOAD PUSH1 0x4 DUP1 DUP3 MSTORE PUSH1 0xA0 DUP3 ADD SWAP1 SWAP3 MSTORE PUSH1 0x0 SWAP2 PUSH1 0x20 DUP3 ADD PUSH1 0x80 DUP1 CALLDATASIZE DUP4 CALLDATACOPY ADD SWAP1 POP POP SWAP1 POP PUSH1 0x1 DUP2 PUSH1 0x0 DUP2 MLOAD DUP2 LT PUSH2 0x416 JUMPI INVALID JUMPDEST PUSH1 0x20 MUL PUSH1 0x20 ADD ADD DUP2 DUP2 MSTORE POP POP DUP3 PUSH1 0x0 SHR DUP2 PUSH1 0x1 DUP2 MLOAD DUP2 LT PUSH2 0x433 JUMPI INVALID JUMPDEST PUSH1 0x20 MUL PUSH1 0x20 ADD ADD DUP2 DUP2 MSTORE POP POP PUSH2 0x448 DUP3 PUSH2 0x6A7 JUMP JUMPDEST DUP3 PUSH1 0x2 DUP2 MLOAD DUP2 LT PUSH2 0x455 JUMPI INVALID JUMPDEST PUSH1 0x20 MUL PUSH1 0x20 ADD ADD DUP4 PUSH1 0x3 DUP2 MLOAD DUP2 LT PUSH2 0x469 JUMPI INVALID JUMPDEST PUSH1 0x20 SWAP1 DUP2 MUL SWAP2 SWAP1 SWAP2 ADD ADD SWAP2 SWAP1 SWAP2 MSTORE MSTORE PUSH1 0x40 MLOAD PUSH3 0xB27757 PUSH1 0xE6 SHL DUP2 MSTORE PUSH1 0x1 PUSH1 0x1 PUSH1 0xA0 SHL SUB PUSH32 0x0 AND SWAP1 PUSH4 0x2C9DD5C0 SWAP1 PUSH2 0x4E5 SWAP1 PUSH32 0x0 SWAP1 DUP6 SWAP1 PUSH1 0x4 ADD PUSH2 0x8AB JUMP JUMPDEST PUSH1 0x0 PUSH1 0x40 MLOAD DUP1 DUP4 SUB DUP2 PUSH1 0x0 DUP8 DUP1 EXTCODESIZE ISZERO DUP1 ISZERO PUSH2 0x4FF JUMPI PUSH1 0x0 DUP1 REVERT JUMPDEST POP GAS CALL ISZERO DUP1 ISZERO PUSH2 0x513 JUMPI RETURNDATASIZE PUSH1 0x0 DUP1 RETURNDATACOPY RETURNDATASIZE PUSH1 0x0 REVERT JUMPDEST POP POP PUSH1 0x40 MLOAD PUSH4 0x23B872DD PUSH1 0xE0 SHL DUP2 MSTORE PUSH1 0x1 PUSH1 0x1 PUSH1 0xA0 SHL SUB PUSH32 0x0 AND SWAP3 POP PUSH4 0x23B872DD SWAP2 POP PUSH2 0x587 SWAP1 PUSH32 0x0 SWAP1 ADDRESS SWAP1 DUP8 SWAP1 PUSH1 0x4 ADD PUSH2 0x7DA JUMP JUMPDEST PUSH1 0x20 PUSH1 0x40 MLOAD DUP1 DUP4 SUB DUP2 PUSH1 0x0 DUP8 DUP1 EXTCODESIZE ISZERO DUP1 ISZERO PUSH2 0x5A1 JUMPI PUSH1 0x0 DUP1 REVERT JUMPDEST POP GAS CALL ISZERO DUP1 ISZERO PUSH2 0x5B5 JUMPI RETURNDATASIZE PUSH1 0x0 DUP1 RETURNDATACOPY RETURNDATASIZE PUSH1 0x0 REVERT JUMPDEST POP POP POP POP PUSH1 0x40 MLOAD RETURNDATASIZE PUSH1 0x1F NOT PUSH1 0x1F DUP3 ADD AND DUP3 ADD DUP1 PUSH1 0x40 MSTORE POP DUP2 ADD SWAP1 PUSH2 0x5D9 SWAP2 SWAP1 PUSH2 0x719 JUMP JUMPDEST POP PUSH1 0x40 MLOAD PUSH4 0x1E7D2353 PUSH1 0xE2 SHL DUP2 MSTORE PUSH1 0x1 PUSH1 0x1 PUSH1 0xA0 SHL SUB PUSH32 0x0 AND SWAP1 PUSH4 0x79F48D4C SWAP1 PUSH2 0x628 SWAP1 DUP7 SWAP1 DUP7 SWAP1 PUSH1 0x4 ADD PUSH2 0x7FE JUMP JUMPDEST PUSH1 0x0 PUSH1 0x40 MLOAD DUP1 DUP4 SUB DUP2 PUSH1 0x0 DUP8 DUP1 EXTCODESIZE ISZERO DUP1 ISZERO PUSH2 0x642 JUMPI PUSH1 0x0 DUP1 REVERT JUMPDEST POP GAS CALL ISZERO DUP1 ISZERO PUSH2 0x656 JUMPI RETURNDATASIZE PUSH1 0x0 DUP1 RETURNDATACOPY RETURNDATASIZE PUSH1 0x0 REVERT JUMPDEST POP POP POP POP POP POP POP JUMP JUMPDEST PUSH32 0x0 DUP2 JUMP JUMPDEST PUSH32 0x0 DUP2 JUMP JUMPDEST PUSH16 0xFFFFFFFFFFFFFFFFFFFFFFFFFFFFFFFF DUP2 AND PUSH1 0x80 DUP3 SWAP1 SHR SWAP2 POP SWAP2 JUMP JUMPDEST DUP1 CALLDATALOAD PUSH16 0xFFFFFFFFFFFFFFFFFFFFFFFFFFFFFFFF DUP2 AND DUP2 EQ PUSH2 0x6E4 JUMPI PUSH1 0x0 DUP1 REVERT JUMPDEST SWAP2 SWAP1 POP JUMP JUMPDEST DUP1 CALLDATALOAD PUSH6 0xFFFFFFFFFFFF DUP2 AND DUP2 EQ PUSH2 0x6E4 JUMPI PUSH1 0x0 DUP1 REVERT JUMPDEST DUP1 CALLDATALOAD PUSH10 0xFFFFFFFFFFFFFFFFFFFF DUP2 AND DUP2 EQ PUSH2 0x6E4 JUMPI PUSH1 0x0 DUP1 REVERT JUMPDEST PUSH1 0x0 PUSH1 0x20 DUP3 DUP5 SUB SLT ISZERO PUSH2 0x72A JUMPI DUP1 DUP2 REVERT JUMPDEST DUP2 MLOAD DUP1 ISZERO ISZERO DUP2 EQ PUSH2 0x739 JUMPI DUP2 DUP3 REVERT JUMPDEST SWAP4 SWAP3 POP POP POP JUMP JUMPDEST PUSH1 0x0 DUP1 PUSH1 0x40 DUP4 DUP6 SUB SLT ISZERO PUSH2 0x752 JUMPI DUP1 DUP2 REVERT JUMPDEST POP POP DUP1 CALLDATALOAD SWAP3 PUSH1 0x20 SWAP1 SWAP2 ADD CALLDATALOAD SWAP2 POP JUMP JUMPDEST PUSH1 0x0 PUSH1 0xE0 DUP3 DUP5 SUB SLT ISZERO PUSH2 0x772 JUMPI DUP1 DUP2 REVERT JUMPDEST POP SWAP2 SWAP1 POP JUMP JUMPDEST PUSH1 0x0 PUSH1 0x20 DUP3 DUP5 SUB SLT ISZERO PUSH2 0x789 JUMPI DUP1 DUP2 REVERT JUMPDEST PUSH2 0x739 DUP3 PUSH2 0x6C4 JUMP JUMPDEST PUSH1 0x0 PUSH1 0x20 DUP3 DUP5 SUB SLT ISZERO PUSH2 0x7A3 JUMPI DUP1 DUP2 REVERT JUMPDEST PUSH2 0x739 DUP3 PUSH2 0x6E9 JUMP JUMPDEST PUSH1 0x0 PUSH1 0x20 DUP3 DUP5 SUB SLT ISZERO PUSH2 0x7BD JUMPI DUP1 DUP2 REVERT JUMPDEST PUSH2 0x739 DUP3 PUSH2 0x6FF JUMP JUMPDEST PUSH1 0x1 PUSH1 0x1 PUSH1 0xA0 SHL SUB SWAP2 SWAP1 SWAP2 AND DUP2 MSTORE PUSH1 0x20 ADD SWAP1 JUMP JUMPDEST PUSH1 0x1 PUSH1 0x1 PUSH1 0xA0 SHL SUB SWAP4 DUP5 AND DUP2 MSTORE SWAP2 SWAP1 SWAP3 AND PUSH1 0x20 DUP3 ADD MSTORE PUSH1 0x40 DUP2 ADD SWAP2 SWAP1 SWAP2 MSTORE PUSH1 0x60 ADD SWAP1 JUMP JUMPDEST SWAP2 DUP3 MSTORE PUSH1 0x20 DUP3 ADD MSTORE PUSH1 0x40 ADD SWAP1 JUMP JUMPDEST PUSH1 0x0 PUSH2 0x120 DUP3 ADD SWAP1 POP DUP5 CALLDATALOAD DUP3 MSTORE PUSH1 0x20 DUP6 ADD CALLDATALOAD PUSH1 0x20 DUP4 ADD MSTORE PUSH1 0x40 DUP6 ADD CALLDATALOAD PUSH1 0x40 DUP4 ADD MSTORE PUSH1 0x60 DUP6 ADD CALLDATALOAD PUSH1 0x60 DUP4 ADD MSTORE PUSH16 0xFFFFFFFFFFFFFFFFFFFFFFFFFFFFFFFF PUSH2 0x854 PUSH1 0x80 DUP8 ADD PUSH2 0x6C4 JUMP JUMPDEST AND PUSH1 0x80 DUP4 ADD MSTORE PUSH10 0xFFFFFFFFFFFFFFFFFFFF PUSH2 0x871 PUSH1 0xA0 DUP8 ADD PUSH2 0x6FF JUMP JUMPDEST AND PUSH1 0xA0 DUP4 ADD MSTORE PUSH6 0xFFFFFFFFFFFF PUSH2 0x88A PUSH1 0xC0 DUP8 ADD PUSH2 0x6E9 JUMP JUMPDEST AND PUSH1 0xC0 DUP4 ADD MSTORE PUSH1 0xE0 DUP3 ADD SWAP4 SWAP1 SWAP4 MSTORE PUSH2 0x100 ADD MSTORE SWAP2 SWAP1 POP JUMP JUMPDEST SWAP1 DUP2 MSTORE PUSH1 0x20 ADD SWAP1 JUMP JUMPDEST PUSH1 0x0 PUSH1 0x40 DUP3 ADD DUP5 DUP4 MSTORE PUSH1 0x20 PUSH1 0x40 DUP2 DUP6 ADD MSTORE DUP2 DUP6 MLOAD DUP1 DUP5 MSTORE PUSH1 0x60 DUP7 ADD SWAP2 POP DUP3 DUP8 ADD SWAP4 POP DUP5 JUMPDEST DUP2 DUP2 LT ISZERO PUSH2 0x8EB JUMPI DUP5 MLOAD DUP4 MSTORE SWAP4 DUP4 ADD SWAP4 SWAP2 DUP4 ADD SWAP2 PUSH1 0x1 ADD PUSH2 0x8CF JUMP JUMPDEST POP SWAP1 SWAP8 SWAP7 POP POP POP POP POP POP POP JUMP INVALID LOG1 PUSH5 0x736F6C6343 STOP SMOD MOD STOP EXP "
        },
        "methodIdentifiers": {
          "dai()": "f4b9fa75",
          "escrow()": "e2fdcc17",
          "finalizeFlush(bytes32,uint256)": "cf3f6209",
          "finalizeRegisterWormhole((bytes32,bytes32,bytes32,bytes32,uint128,uint80,uint48))": "b52547d2",
          "l2DaiWormholeGateway()": "652b3750",
          "starkNet()": "0b43773e",
          "wormholeRouter()": "8c4554a8"
        }
      }
    }
  }
}