{
  "_format": "hh-sol-artifact-1",
  "contractName": "L1DAIWormholeGateway",
  "sourceName": "contracts/l1/L1DAIWormholeGateway.sol",
  "abi": [
    {
      "inputs": [
        {
          "internalType": "address",
          "name": "_starkNet",
          "type": "address"
        },
        {
          "internalType": "address",
          "name": "_dai",
          "type": "address"
        },
        {
          "internalType": "uint256",
          "name": "_l2DaiWormholeGateway",
          "type": "uint256"
        },
        {
          "internalType": "address",
          "name": "_escrow",
          "type": "address"
        },
        {
          "internalType": "address",
          "name": "_wormholeRouter",
          "type": "address"
        }
      ],
      "stateMutability": "nonpayable",
      "type": "constructor"
    },
    {
      "inputs": [],
      "name": "dai",
      "outputs": [
        {
          "internalType": "address",
          "name": "",
          "type": "address"
        }
      ],
      "stateMutability": "view",
      "type": "function"
    },
    {
      "inputs": [],
      "name": "escrow",
      "outputs": [
        {
          "internalType": "address",
          "name": "",
          "type": "address"
        }
      ],
      "stateMutability": "view",
      "type": "function"
    },
    {
      "inputs": [
        {
          "internalType": "bytes32",
          "name": "targetDomain",
          "type": "bytes32"
        },
        {
          "internalType": "uint256",
          "name": "daiToFlush",
          "type": "uint256"
        }
      ],
      "name": "finalizeFlush",
      "outputs": [],
      "stateMutability": "nonpayable",
      "type": "function"
    },
    {
      "inputs": [
        {
          "components": [
            {
              "internalType": "bytes32",
              "name": "sourceDomain",
              "type": "bytes32"
            },
            {
              "internalType": "bytes32",
              "name": "targetDomain",
              "type": "bytes32"
            },
            {
              "internalType": "bytes32",
              "name": "receiver",
              "type": "bytes32"
            },
            {
              "internalType": "bytes32",
              "name": "operator",
              "type": "bytes32"
            },
            {
              "internalType": "uint128",
              "name": "amount",
              "type": "uint128"
            },
            {
              "internalType": "uint80",
              "name": "nonce",
              "type": "uint80"
            },
            {
              "internalType": "uint48",
              "name": "timestamp",
              "type": "uint48"
            }
          ],
          "internalType": "struct WormholeGUID",
          "name": "wormhole",
          "type": "tuple"
        }
      ],
      "name": "finalizeRegisterWormhole",
      "outputs": [],
      "stateMutability": "nonpayable",
      "type": "function"
    },
    {
      "inputs": [],
      "name": "l2DaiWormholeGateway",
      "outputs": [
        {
          "internalType": "uint256",
          "name": "",
          "type": "uint256"
        }
      ],
      "stateMutability": "view",
      "type": "function"
    },
    {
      "inputs": [],
      "name": "starkNet",
      "outputs": [
        {
          "internalType": "address",
          "name": "",
          "type": "address"
        }
      ],
      "stateMutability": "view",
      "type": "function"
    },
    {
      "inputs": [],
      "name": "wormholeRouter",
      "outputs": [
        {
          "internalType": "contract WormholeRouter",
          "name": "",
          "type": "address"
        }
      ],
      "stateMutability": "view",
      "type": "function"
    }
  ],
  "bytecode": "0x61012060405234801561001157600080fd5b50604051610b1d380380610b1d83398101604081905261003091610109565b6001600160601b0319606086811b821660805285811b821660a05260c085905283811b821660e05282901b166101005260405163095ea7b360e01b81526001600160a01b0385169063095ea7b3906100909084906000199060040161018d565b602060405180830381600087803b1580156100aa57600080fd5b505af11580156100be573d6000803e3d6000fd5b505050506040513d601f19601f820116820180604052508101906100e29190610166565b5050505050506101a6565b80516001600160a01b038116811461010457600080fd5b919050565b600080600080600060a08688031215610120578081fd5b610129866100ed565b9450610137602087016100ed565b93506040860151925061014c606087016100ed565b915061015a608087016100ed565b90509295509295909350565b600060208284031215610177578081fd5b81518015158114610186578182fd5b9392505050565b6001600160a01b03929092168252602082015260400190565b60805160601c60a05160601c60c05160e05160601c6101005160601c6109056102186000398061013f528061037252806105f152508061055b528061066152508061011b528061030152806104bb52508061052c528061068552508060f752806102d4528061048e52506109056000f3fe608060405234801561001057600080fd5b506004361061007d5760003560e01c8063b52547d21161005b578063b52547d2146100bd578063cf3f6209146100d2578063e2fdcc17146100e5578063f4b9fa75146100ed5761007d565b80630b43773e14610082578063652b3750146100a05780638c4554a8146100b5575b600080fd5b61008a6100f5565b60405161009791906107c6565b60405180910390f35b6100a8610119565b60405161009791906108a2565b61008a61013d565b6100d06100cb366004610761565b610161565b005b6100d06100e0366004610740565b6103e4565b61008a61065f565b61008a610683565b7f000000000000000000000000000000000000000000000000000000000000000081565b7f000000000000000000000000000000000000000000000000000000000000000081565b7f000000000000000000000000000000000000000000000000000000000000000081565b6040805160088082526101208201909252600091602082016101008036833701905050905060008160008151811061019557fe5b60209081029190910101528051823590829060019081106101b257fe5b602002602001018181525050816020013560001c816002815181106101d357fe5b602002602001018181525050816040013560001c816003815181106101f457fe5b602002602001018181525050816060013560001c8160048151811061021557fe5b602090810291909101015261023060a0830160808401610778565b6fffffffffffffffffffffffffffffffff168160058151811061024f57fe5b602090810291909101015261026a60c0830160a084016107ac565b69ffffffffffffffffffff168160068151811061028357fe5b602090810291909101015261029e60e0830160c08401610792565b65ffffffffffff16816007815181106102b357fe5b602090810291909101015260405162b2775760e61b81526001600160a01b037f00000000000000000000000000000000000000000000000000000000000000001690632c9dd5c09061032b907f00000000000000000000000000000000000000000000000000000000000000009085906004016108ab565b600060405180830381600087803b15801561034557600080fd5b505af1158015610359573d6000803e3d6000fd5b5050604051630554d2bf60e21b81526001600160a01b037f00000000000000000000000000000000000000000000000000000000000000001692506315534afc91506103ae908590600090819060040161080c565b600060405180830381600087803b1580156103c857600080fd5b505af11580156103dc573d6000803e3d6000fd5b505050505050565b60408051600480825260a082019092526000916020820160808036833701905050905060018160008151811061041657fe5b6020026020010181815250508260001c8160018151811061043357fe5b602002602001018181525050610448826106a7565b8260028151811061045557fe5b602002602001018360038151811061046957fe5b60209081029190910101919091525260405162b2775760e61b81526001600160a01b037f00000000000000000000000000000000000000000000000000000000000000001690632c9dd5c0906104e5907f00000000000000000000000000000000000000000000000000000000000000009085906004016108ab565b600060405180830381600087803b1580156104ff57600080fd5b505af1158015610513573d6000803e3d6000fd5b50506040516323b872dd60e01b81526001600160a01b037f00000000000000000000000000000000000000000000000000000000000000001692506323b872dd9150610587907f000000000000000000000000000000000000000000000000000000000000000090309087906004016107da565b602060405180830381600087803b1580156105a157600080fd5b505af11580156105b5573d6000803e3d6000fd5b505050506040513d601f19601f820116820180604052508101906105d99190610719565b50604051631e7d235360e21b81526001600160a01b037f000000000000000000000000000000000000000000000000000000000000000016906379f48d4c9061062890869086906004016107fe565b600060405180830381600087803b15801561064257600080fd5b505af1158015610656573d6000803e3d6000fd5b50505050505050565b7f000000000000000000000000000000000000000000000000000000000000000081565b7f000000000000000000000000000000000000000000000000000000000000000081565b6fffffffffffffffffffffffffffffffff8116608082901c915091565b80356fffffffffffffffffffffffffffffffff811681146106e457600080fd5b919050565b803565ffffffffffff811681146106e457600080fd5b803569ffffffffffffffffffff811681146106e457600080fd5b60006020828403121561072a578081fd5b81518015158114610739578182fd5b9392505050565b60008060408385031215610752578081fd5b50508035926020909101359150565b600060e08284031215610772578081fd5b50919050565b600060208284031215610789578081fd5b610739826106c4565b6000602082840312156107a3578081fd5b610739826106e9565b6000602082840312156107bd578081fd5b610739826106ff565b6001600160a01b0391909116815260200190565b6001600160a01b039384168152919092166020820152604081019190915260600190565b918252602082015260400190565b600061012082019050843582526020850135602083015260408501356040830152606085013560608301526fffffffffffffffffffffffffffffffff610854608087016106c4565b16608083015269ffffffffffffffffffff61087160a087016106ff565b1660a083015265ffffffffffff61088a60c087016106e9565b1660c083015260e08201939093526101000152919050565b90815260200190565b60006040820184835260206040818501528185518084526060860191508287019350845b818110156108eb578451835293830193918301916001016108cf565b509097965050505050505056fea164736f6c6343000706000a",
  "linkReferences": {},
  "deployedLinkReferences": {}
}